:020000040800F2
:1000000060040020D5000008690F0008650F000893
:1000100000000000000000000000000000000000E0
:10002000000000000000000000000000E70F0008D2
:100030000000000000000000E50F0008E90F0008C4
:10004000E7000008E7000008E7000008E7000008F4
:10005000E7000008E7000008E7000008E7000008E4
:10006000E700000841010008E7000008E700000879
:10007000E7000008E7000008E7000008E7000008C4
:1000800019110008E7000008E7000008E700000871
:10009000E7000008E7000008E7000008E7000008A4
:1000A000E7000008E7000008E7000008C1120008A8
:1000B000E7000008E7000008E7000008E700000884
:1000C0000348854600F02AF80048004765130008F9
:1000D000600400200448804704480047FEE7FEE72C
:1000E000FEE7FEE7FEE7FEE73D100008C10000085E
:1000F00030B50B46014600202022012409E00D46C0
:10010000D5409D4205D31D469540491B2546954047
:1001100040191546521E002DF1DC30BD064C01255C
:10012000064E05E0E36807CC2B430C3C984710349F
:10013000B442F7D3FFF7C8FFF813000818140008FB
:100140007047000000B587B000BF0F48406901212B
:10015000890408430C494861084640690121890423
:100160000840019000BF00BF0120039002200490CE
:1001700003200590FF20FF30029002A9034800F001
:1001800007F807B000BD000000100240000400485E
:1001900078B50346002200240020E3E001269640C3
:1001A0000D6835402C46002C7ED04D68022D02D0C3
:1001B0004D68122D15D1D508AE001D462035A85921
:1001C0005507EE0E0F25B5400646AE43304656079E
:1001D000F60E0D69B5402843D508AD001E46203601
:1001E0007051186856000325B5400646AE433046A8
:1001F0000D79AD07AD0F5600B540284318604D6826
:10020000012D08D04D68022D05D04D68112D02D06A
:100210004D68122D18D1986856000325B540064642
:10022000AE4330465600CD68B540284398605868C4
:10023000012595400646AE43304610264D683540B0
:100240002D09954028435860D86856000325B540CD
:100250000646AE43304656008D68B5402843D86008
:10026000012636074D683540B5427AD100BF404D72
:10027000AD69012635433E4EB5613546AD69ED07A2
:10028000ED0F009500BF00BF3A4D9608B600A85983
:1002900095072E0F0F25B5400646AE43304609257B
:1002A000ED06AB4203D100E05BE0002514E0324DE7
:1002B000AB4201D101250FE0304DAB4201D1022507
:1002C0000AE02F4DAB4201D1032505E02D4DAB4295
:1002D00001D1042500E005259607360FB5402843D7
:1002E000244D9608B600A851274D28680546A54319
:1002F0002846012636044D683540B54202D10546F0
:1003000025432846204D286068680546A5432846B1
:10031000012676044D683540B54202D10546254395
:100320002846194D6860A8680546A5432846012659
:1003300036054D683540B54202D10546254328466D
:10034000114DA860E8680546A543284601267605B4
:100350004D683540B54202D10546254328460A4D31
:10036000E860521C0D68D540002D00D016E778BD1E
:100370000010024008000140000400480008004846
:10038000000C00480010004800040140002A01D081
:10039000816100E081627047014800687047000099
:1003A0001C00002002480068401C0149086070479A
:1003B0001C00002000BFC206D20E01219140024A5B
:1003C000116000BF7047000000E100E070B5044616
:1003D0000D4616462946204600F0C8FD70BD0000B7
:1003E00070B504460E460025AB480068C007C00F34
:1003F000B0426ED2A8480068400840003043A64989
:10040000086008460068C007C00FB04201D0012054
:1004100070BD022120680840022807D19F4840682B
:10042000F0218843A16808439C4948602078C007B0
:10043000C00F002848D06068012808D1974800689C
:10044000012149040840002821D10120E0E760682B
:10045000022808D191480068012149060840002877
:1004600015D10120D4E76068032808D18B48406B80
:10047000012109040840002809D10120C8E7874864
:10048000006802210840002801D10120C0E783480C
:100490004068800880006168084380494860FFF731
:1004A0007BFF0546606801280FD107E0FFF774FF66
:1004B000401B7B49884201D90320A9E7774840685F
:1004C0000C2108400428F1D1D6E06068022810D140
:1004D00008E031E0FFF760FF401B7149884201D915
:1004E000032095E76D4840680C2108400828F1D1A9
:1004F000C2E0606803280FD107E0FFF74DFF401B03
:100500006749884201D9032082E7644840680C218A
:1005100008400C28F1D1AFE007E0FFF73DFF401B9A
:100520005F49884201D9032072E75C4840680C218A
:1005300008400028F1D19FE00221206808400228ED
:1005400007D156484068F0218843A16808435349C1
:1005500048602078C007C00F00287ED0606801285E
:1005600008D14E480068012149040840002821D1E3
:1005700001204DE76068022808D148480068012141
:1005800049060840002815D1012041E7606803288A
:1005900008D14248406B012109040840002809D1D4
:1005A000012035E73D48006802210840002801D1BC
:1005B00001202DE7394840688008800061680843C1
:1005C00036494860FFF7E8FE0546606801280FD10C
:1005D00007E0FFF7E1FE401B3149884201D90320C3
:1005E00016E72E4840680C2108400428F1D134E079
:1005F000606802280FD107E0FFF7CEFE401B2849B4
:10060000884201D9032003E7244840680C210840B0
:100610000828F1D121E0606803280FD107E0FFF737
:10062000BBFE401B1E49884201D90320F0E61B484F
:1006300040680C2108400C28F1D10EE007E0FFF7DC
:10064000ABFE401B1649884201D90320E0E613485F
:1006500040680C2108400028F1D10F48006840088C
:10066000400030430C49086008460068C007C00FCE
:10067000B04201D00120CBE60421206808400428C4
:1006800008D106484068072109028843E168084309
:10069000024948600020BBE60020024000100240F2
:1006A0008813000038B5044600252078C007C00F25
:1006B00000286FD0FE4840680C21084004280CD068
:1006C000FB4840680840082813D1F94840684903AE
:1006D00008400121090488420BD1F5480068012136
:1006E000490408400028E4D06068002852D1012065
:1006F00038BD00BFEE480068012109048843EC4979
:10070000086008460068012189048843E8490860B8
:1007100000BFFFF741FE054606E0FFF73DFE401B28
:10072000642801D90320E3E7E14800680121490476
:1007300008400028F1D100BF6068012806D1DC48DC
:10074000006849100843DA49086032E06068002810
:100750000ED1D7480068012109048843D4490860B4
:1007600008460068012189048843D149086020E0D7
:10077000606805280FD1CE4800680121890408432C
:10078000CB49086008460068012109040843C849AC
:1007900008600EE036E0C64800680121090488437D
:1007A000C349086008460068012189048843C0499C
:1007B000086000BF6068002812D0FFF7EDFD054615
:1007C00006E0FFF7E9FD401B642801D903208FE70D
:1007D000B74800680121490408400028F1D011E021
:1007E000FFF7DAFD054606E0FFF7D6FD401B64285B
:1007F00001D903207CE7AE48006801214904084084
:100800000028F1D1022120680840022862D1A848BE
:1008100040680C21084000280CD0A54840680840DA
:1008200008281CD1A2484068490308400121C90397
:10083000884214D19E48006802210840002804D054
:10084000E068012801D0012052E799480068F821AA
:1008500088432169C9000843954908603AE0E06887
:10086000002820D092480068012108439049086080
:10087000FFF792FD054606E0FFF78EFD401B64285A
:1008800001D9032034E78A48006802210840002883
:10089000F2D087480068F82188432169C9000843DD
:1008A0008349086016E0824800684008400080499B
:1008B0000860FFF771FD054606E0FFF76DFD401B80
:1008C000642801D9032013E7794800680221084011
:1008D0000028F2D1082120680840082831D1206A78
:1008E000002817D07248406A0121084370494862C5
:1008F000FFF752FD054606E0FFF74EFD401B64285A
:1009000001D90320F4E66A48406A02210840002821
:10091000F2D016E06648406A4008400064494862E8
:10092000FFF73AFD054606E0FFF736FD401B642859
:1009300001D90320DCE65E48406A02210840002815
:10094000F2D1042120680840042870D100BF584823
:10095000C069890608435649C8610846C069090448
:100960000840009000BF00BF5248006809150843C6
:1009700050490860FFF710FD054606E0FFF70CFD43
:10098000401B642801D90320B2E64A480068FF21D1
:10099000013108400028F1D000BF4548006A4008F6
:1009A0004000434908620846006A042188434049E0
:1009B000086200BFFFF7F0FC054607E0FFF7ECFC1C
:1009C000401B3D49884201D9032091E63848006A1E
:1009D000022108400028F1D100BFA068012806D1FB
:1009E0003348006A01210843314908622CE0A068BD
:1009F00000280CD12E48006A400840002C490862AB
:100A00000846006A04218843294908621CE0A0685E
:100A100005280DD12648006A0421084324490862AC
:100A20000846006A01210843214908620CE034E0CD
:100A30001F48006A400840001D4908620846006AD5
:100A4000042188431A49086200BFA068002812D018
:100A5000FFF7A2FC054607E0FFF79EFC401B164986
:100A6000884201D9032043E61148006A0221084068
:100A70000028F1D011E0FFF78FFC054607E0FFF7F3
:100A80008BFC401B0C49884201D9032030E6084802
:100A9000006A022108400028F1D110212068084096
:100AA000102860D1606901282DD10148406B05E014
:100AB0000010024000700040881300000421084329
:100AC0008E4948630846406B012108438B494863BF
:100AD000FFF762FC054606E0FFF75EFC401B64285A
:100AE00001D9032004E68548406B02210840002814
:100AF000F2D08248406BF8218843A169C9000843BD
:100B00007E4948632FE06069401D00280FD17B4873
:100B1000406B04218843794948630846406BF821BB
:100B20008843A169C9000843744948631BE07348BE
:100B3000406B04210843714948630846406B4008F4
:100B400040004863FFF728FC054606E0FFF724FC59
:100B5000401B642801D90320CAE56848406B022184
:100B600008400028F2D1202120680840202852D1D6
:100B7000624840680C2108400C280AD05F48406851
:100B80000840082811D15D48406849030840884260
:100B90000BD15A48406B01210904084000283AD083
:100BA000E069012837D00120A2E5E069002819D0CA
:100BB0005248406B01210904084350494863FFF73C
:100BC000EBFB054606E0FFF7E7FB401B642801D975
:100BD00003208DE54948406B0121090408400028A5
:100BE000F1D018E04548406B01210904884343498E
:100BF0004863FFF7D1FB054606E0FFF7CDFB401B3E
:100C0000642801D9032073E53C48406B01210904A5
:100C100008400028F1D1606A00286CD0374840684D
:100C20000C210840082864D0606A022847D1334864
:100C3000006801210906884330490860FFF7ACFBD2
:100C4000054606E0FFF7A8FB401B642801D90320F6
:100C50004EE52A4800680121490608400028F1D1E4
:100C600000BF2648C06A00090001216B08432349E0
:100C7000C862A16AE06A0843204949687B22D2031E
:100C8000914308431D49486000BF084600680121A0
:100C90000906084319490860FFF77EFB054606E090
:100CA000FFF77AFB401B642801D9032020E5134895
:100CB00000680121490608400028F1D01BE00F48D8
:100CC00000680121090688430C490860FFF764FBAE
:100CD000054606E0FFF760FB401B642801D90320AE
:100CE00006E5064800680121490608400028F1D1C0
:100CF00001E00120FCE40020FAE4000000100240C2
:100D00007047704710B50446002C01D1012010BD7A
:100D10003920005D002805D10021382001552046EA
:100D200000F00CF8022139200155211D206800F047
:100D300001FA0121392001550020E8E738B50446C1
:100D400000BF0B48C069022108430949C861084631
:100D5000C06902210840009000BF00BF00220321AB
:100D60001020FFF733FB1020FFF724FB38BD0000F5
:100D70000010024001460868C068012210430A685A
:100D8000D06008680068012210430A6810600020E3
:100D90007047704710B5044620680069022108407A
:100DA000400800281CD02068C0680840400800287F
:100DB00016D0481F216808610120207620688069CC
:100DC0008007800F002803D02046FFF7E2FF05E0F0
:100DD000204600F0C3F8204600F0C1F8002020763D
:100DE0002068006904210840800800281DD0206880
:100DF000C06808408008002817D0C84321680861EF
:100E0000022020762068806903210902084000281A
:100E100003D02046FFF7BDFF05E0204600F09EF816
:100E2000204600F09CF80020207620680069082108
:100E30000840C00800281CD02068C0680840C008CE
:100E4000002816D0C8432168086104202076206855
:100E5000C0698007800F002803D02046FFF799FF64
:100E600005E0204600F07AF8204600F078F80020EF
:100E700020762068006910210840000900281DD054
:100E80002068C06808400009002817D0C8432168BE
:100E90000861082020762068C06903210902084003
:100EA000002803D02046FFF774FF05E0204600F03D
:100EB00055F8204600F053F800202076206800699D
:100EC000C007C00F01214840484000280CD02068CE
:100ED000C068084048404840002805D0C81E216826
:100EE0000861204600F03CF8206800698021084035
:100EF000C00900280BD02068C0680840C00900283D
:100F000005D0C843216808612046FFF7F9FE206834
:100F1000006940210840800900280BD02068C06883
:100F200008408009002805D0C84321680861204690
:100F300000F017F8206800692021084040090028C7
:100F40000BD02068C06808404009002805D0C8437D
:100F5000216808612046FFF7D4FE10BD7047704736
:100F60007047704700BFFEE77047000010B50028CB
:100F700019DA1A4A03071B0F083B9B089B00D2583B
:100F80008307DC0EFF23A3409A438B071B0E8407C5
:100F9000E40EA3401A43114B0407240F083CA40895
:100FA000A4001A5118E00E4A03231B02D21883082A
:100FB0009B00D2588307DC0EFF23A3409A438B0784
:100FC0001B0E8407E40EA3401A43054B032424029E
:100FD0001B198408A4001A5110BD00001CED00E08C
:100FE00000E100E07047704710B5FFF7DBF910BD76
:100FF00000B591B0002000900220099081030A9171
:1010000001210C910521C9040B916846FFF74AFBA9
:10101000002801D000BFFEE707200D9002200E90AF
:1010200000200F90109001210DA8FFF7D9F900289A
:1010300001D000BFFEE711B000BD000019480068F4
:1010400001210843174908600846406816490840CE
:10105000144948600846006814490840114908606E
:10106000084600680121890488430E490860084643
:1010700040683F21090488430A4948600846C06A1D
:1010800000090001C8620846006B0949084005498B
:1010900008630846406B40084000486300208860B1
:1010A00070470000001002400CB8FF08FFFFF6FE7A
:1010B0002CFEFCFF10B5124912480068FFF718F823
:1010C000401E114908601148114908601149104833
:1010D000C1600D4800680E49486000210C4801615C
:1010E00081604161FFF70EFE002801D000BFFEE7DE
:1010F0000748FFF73FFE002801D000BFFEE710BD04
:1011000040420F00080000200400002000040040BE
:10111000200000206918000010B50448FFF73AFECF
:1011200003480078401C0249087010BD20000020D0
:101130000000002010B500220268214B984206D022
:1011400001239B07984202D01E4B984205D1702480
:101150001346A3431A464B681A43194B984212D0C0
:1011600001239B0798420ED0164B98420BD0164B8A
:10117000984208D0154B984205D0154B984202D0A2
:10118000144B984206D1032424021346A3431A4663
:10119000CB681A4302608B68C3620B688362084B9A
:1011A000984208D0094B984205D0094B984202D08A
:1011B000084B984201D10B6903630123436110BDC1
:1011C000002C01400004004000200040004001408D
:1011D000004401400048014010B5012204210448A8
:1011E000FFF7D4F8002204210148FFF7CFF810BD23
:1011F0000004004810B5012208210448FFF7C6F892
:10120000002208210148FFF7C1F810BD0004004882
:1012100010B5012210210448FFF7B8F80022102170
:101220000148FFF7B3F810BD0004004810B50122D3
:1012300020210448FFF7AAF8002220210148FFF7E7
:10124000A5F810BD0004004810B501224021044853
:10125000FFF79CF8002240210148FFF797F810BDE6
:101260000004004810B5012280210448FFF78EF8E1
:10127000002280210148FFF789F810BD00040048D2
:1012800010B5012211020548FFF780F80022FF2166
:1012900001310248FFF77AF810BD00000004004851
:1012A00010B5012251020548FFF770F80022012114
:1012B00049020248FFF76AF810BD00000004004828
:1012C000704702E008C8121F08C1002AFAD170470F
:1012D0007047002001E001C1121F002AFBD17047B6
:1012E00070B5002407E0A00004490D58002D00D07F
:1012F000A847601CC4B2042CF5D370BD7413000859
:10130000FF2400BF00BF13480078134909788842C2
:10131000F9D011480078401C0F490870002401E002
:10132000601CC4B20120A0400B4909780840002885
:10133000F6D1002509E0A00008490858A900465840
:10134000002E00D0B047681CC5B20548005DA84219
:10135000D8DDF0E70000002001000020C8130008DD
:10136000EC13000810B5FFF7BBFFFFF7C9FF002023
:1013700010BD0000F10F000845010008B51000087D
:1013800000000000D911000800000000F51100085D
:1013900011120008000000002D12000800000000DB
:1013A000491200080000000065120008000000005B
:1013B0008112000800000000A112000800000000D7
:1013C0000000000000000000841300088C130008D7
:1013D00098130008A0130008A8130008B013000811
:1013E000B8130008C0130008C41300080203020267
:1013F0000202020101000000181400080000002091
:1014000020000000C212000838140008200000204C
:1014100040040000D212000800000000000000009C
:10142000006CDC0200000000000000000102030468
:08143000060708090000000096
:04000005080000C12E
:00000001FF
